:100000000C9438000C9455000C9455000C94550039
:100010000C9455000C9455000C9455000C9455000C
:100020000C9455000C9455000C9455000C945500FC
:100030000C9455000C9455000C9455000C945500EC
:100040000C9455000C9455000C9455000C945F00D2
:100050000C9455000C9455000C9455000C945500CC
:100060000C9455000C9455000C9455000C945500BC
:1000700011241FBECFEFD4E0DEBFCDBF11E0A0E062
:10008000B1E0E8E0F5E002C005900D92A832B107BA
:10009000D9F711E0A8E2B1E001C01D92A233B10787
:1000A000E1F70E949C000C9482020C9400005D9B7E
:1000B000FECF8CB908955F9BFECF8CB108951F923F
:1000C0000F920FB60F9211242F933F934F935F938C
:1000D0006F937F938F939F93AF93BF93EF93FF9310
:1000E0000E945B000E94570018BAFF91EF91BF91E8
:1000F000AF919F918F917F916F915F914F913F91C0
:100100002F910F900FBE0F901F901895CF93DF93F4
:10011000EC018881882331F021960E945700899153
:100120008823D9F7DF91CF91089590BD89B988E9E7
:100130008AB98EE880BD08958FE190E00E94950015
:1001400087E590E06BE570E00E94B600789480E06F
:1001500091E00E94860083E191E00E940001FFCFC0
:100160005F9B03C08CB15F99FDCF08950F931F93E0
:10017000CF93DF938C01EB01009711F42097C1F12D
:1001800081E090E06EE070E00E942E01FC0100979B
:1001900089F180E88383209771F0D387C28781E853
:1001A00083838091280190912901009721F4F09395
:1001B0002901E093280101151105E1F0118700875D
:1001C00083818260838380912A0190912B01009723
:1001D00089F4F0932B01E0932A0180912C019091F6
:1001E0002D01009739F4F0932D01E0932C0102C00A
:1001F000E0E0F0E0CF01DF91CF911F910F910895E2
:100200000F931F93CF93DF938C01E0912A01F0911C
:100210002B01838181FF1AC0C0E0D0E005C00995A1
:10022000009711F0CFEFDFEFF80181918F0160911E
:100230002A0170912B01DB011896ED91FC91199721
:10024000882369F78AE00995009711F0CFEFDFEF77
:10025000CE01DF91CF911F910F9108950F931F93BE
:10026000CF93DF93689F8001699F100D789F100DD9
:100270001124C8010E944C01C82FD92F209731F0BA
:100280008C2F60E070E0A8010E947B02CE01DF911C
:10029000CF911F910F910895CF93DF93AC018230DE
:1002A000910510F442E050E0E0913001F09131010D
:1002B00020E030E0A0E0B0E024C08081918184178C
:1002C0009507D0F08417950771F482819381109778
:1002D00029F013969C938E9312972CC09093310122
:1002E0008093300127C02115310519F0821793073B
:1002F00018F49C01BD01EF0192818381DF01E92F98
:10030000F82F3097D1F621153105F9F0C901841B7A
:10031000950B8430910580F48A819B81611571056C
:1003200021F0FB019383828304C090933101809379
:100330003001FE01329642C0FE01E80FF91F4193E1
:10034000519302979983888339C080912E019091AF
:100350002F01009741F48091230190912401909303
:100360002F0180932E01209121013091220121152E
:10037000310541F42DB73EB78091250190912601BA
:10038000281B390BE0912E01F0912F01E217F307A2
:1003900098F42E1B3F0B2417350770F0CA01029604
:1003A0002817390748F08E0F9F1F90932F018093D5
:1003B0002E014193519302C0E0E0F0E0CF01DF91C4
:1003C000CF9108950F931F93CF93DF939C010097D4
:1003D00009F48CC0DC01129713961C921E9212979E
:1003E00060913001709131016115710589F48D9131
:1003F0009C911197820F931F20912E0130912F0114
:100400002817390769F5B0932F01A0932E016EC00C
:10041000FB0140E050E001C0FC01EA17FB0730F4AB
:1004200082819381AF010097B9F71FC0E90122973C
:10043000FB83EA8308811981C901800F911F8E1700
:100440009F0759F480819181800F911F02969983B3
:100450008883828193819B838A834115510529F486
:10046000B0933101A093300141C0FA01B383A2835C
:10047000C191D191EC0FFD1FAE17BF0781F4F901B7
:10048000929182918C0F9D1F0296DA0111969C9396
:100490008E938281938113969C938E931297E0E0C2
:1004A000F0E002C0FB01BC01DB0112968D919C9132
:1004B00013970097B9F7CB0102962D913C911197B4
:1004C000820F931F20912E0130912F012817390799
:1004D00069F4309729F4109231011092300102C072
:1004E0001382128270932F0160932E01DF91CF91BE
:1004F0001F910F910895DC0101C06D934150504050
:08050000E0F70895F894FFCF25
:1005080073656E64696E672066756E67657265727D
:100518002C2000746573746572206D6F7474616B40
:08052800000000320120000078
:00000001FF
